:03000000020BE50B
:0C0BE500787FE4F6D8FD7581230208003B
:10080000120B8E120B70751100751200751309759D
:10081000140075150075160A7B007A007908120815
:1008200068AB0AAD09AF0812091C7FC0120A237514
:10083000110075120075130C7514007515007516EE
:100840000D7B007A00790B1208C2AB0DAD0CAF0B1B
:100850001209647F80120A23E4FFFE0FBF00010E1D
:08086000BE01F8BFF4F5809E13
:100A23008F0EE50E54F0F5A0C280C281D2827F0101
:100A33007E00120BD3C282E50EC454F0F5A0C2802F
:0E0A4300C281D2827F017E00120BD3C28222BA
:0509F000540F2430FF4C
:1009F5008F11E51154F0F5A0D280C281D2827F011A
:100A05007E00120BD3C282E511C454F0F5A0D2804A
:0E0A1500C281D2827F017E00120BD3C28222E8
:100AA5008B1A8A1B891CAB1AAA1BA91C120A516036
:100AB50013051CE51C7002051B14F9120A51FF12DF
:050AC50009F580E222AA
:100B8E007F02120A237F28120A237F0C120A237F68
:090B9E0001120A237F80020A23E0
:10091C008F0E8D0F8B107804E50EA2E713D8FB1207
:10092C0009F0E50E1209F07F3A1209F57804E50F8B
:10093C00A2E713D8FB1209F0E50F1209F07F3A1267
:10094C0009F57804E510A2E713D8FB1209F0E510BD
:08095C00540F2430FF0209F5DD
:100964008F0E8D0F8B107804E50EA2E713D8FB12BF
:1009740009F0E50E1209F07F3A1209F57804E50F43
:10098400A2E713D8FB1209F0E50F1209F07F3A121F
:1009940009F57804E510A2E713D8FB1209F0E51075
:0809A400540F2430FF0209F595
:1009AC00758920758DFD759850D28E3098FD85997E
:1009BC0023852390E52324F8600C24DA6016242187
:1009CC0070197FC080107F04120A237F201209F552
:1009DC007F0680027F01120A238005AF231209F5DE
:0409EC00C29880C766
:100BA7007F28120A237F01120A237F0A120A237F52
:090BB70006120A237F80020A23C2
:100BD300E4FDFCC3ED9FEC9E50070DBD00010C80AE
:010BE300F21F
:010BE40022EE
:100BC0007F327E00120BD3D2907F327E00120BD385
:030BD000C29022AE
:100B1200C290D2917F327E00120BD3D2907F327E6E
:100B220000120BD3C2917F327E00120BD3C29022ED
:100B5200C2907F327E00120BD3C2917F327E00128E
:0E0B62000BD3D2907F327E00120BD3D29122A1
:080BF100C291120BC0D2912247
:080BF900D291120BC0D2902230
:020A7C008F17D2
:100A7E00E4F518F519E517339291120BC0E5172519
:100A8E00E0F5170519E51970020518C39408E51865
:060A9E00940040E1D2913A
:010AA400222F
:100B3200E4FFD291FDFCD290EF25E0FFA291E433D5
:0F0B42004207C2900DBD00010CED64084C70E736
:010B51002281
:100B7000120B127FD0120A7C120BC07F07120A7C64
:0E0B8000120BC0E4FF120A7C120BC0020B52D3
:100ACA008F1D8D1E8B1F120B12AF1D120A7C120B6B
:100ADA00C0AF1E120A7C120BC0AF1F120A7C120B87
:040AEA00C0020B52E9
:100AEE008F208D218B22120B12AF20120A7C120B3B
:100AFE00C0AF21120A7C120BC0AF22120A7C120B5D
:040B0E00C0020B52C4
:100868008B0E8A0F8910120B127FD0120A7C120B82
:10087800C0E4FF120A7C120BC0120B52120B127F3B
:10088800D1120A7C120BC0120B32AB14AA15A9168E
:10089800EF120A6A120BF1120B32AB11AA12A9134A
:1008A800EF120A6A120BF1120B32AB0EAA0FA91043
:0A08B800EF120A6A120BF9020B524C
:1008C2008B0E8A0F8910120B127FD0120A7C120B28
:1008D200C07F04120A7C120BC0120B52120B127F41
:1008E200D1120A7C120BC0120B32AB0EAA0FA91046
:1008F200EF120A6A120BF1120B32AB11AA12A913F0
:10090200EF120A6A120BF1120B32AB14AA15A916D6
:0A091200EF120A6A120BF9020B52F1
:100A5100BB010689828A83E0225002E722BBFE02A3
:090A6100E32289828A83E49322D6
:100A6A00BB010689828A83F0225002F722BBFE016B
:020A7A00F32265
:00000001FF
