:03000000020AAB46
:0C0AAB00787FE4F6D8FD75811902080080
:10080000120A05120A4C751100751200751309754C
:10081000140075150075160A7B007A007908120815
:100820006175110075120075130C751400751500B3
:1008300075160D7B007A00790B1208BB7F80120AB7
:1008400075AB0AAD09AF081209157FC0120A75AB66
:100850000DAD0CAF0B1209637FF47E01120A878085
:01086000A5F2
:100A75008FA0C280C281D2827F017E00120A87C206
:020A85008222CB
:0809EB0054F0C4540F4430FF26
:1009F3008FA0D280C281D2827F017E00120A87C279
:020A030082224D
:100A05007F38120A757F0E120A757F01120A757FEB
:090A150006120A757F80020A75C1
:060915008F0E8D0F8B1008
:10091B00E51054F0C4540F4430FEFF1209F3E510F8
:10092B001209EE7F3A1209F3E50F54F0C4540F4449
:10093B0030FEFF1209F3E50F1209EE7F3A1209F3AD
:10094B00E50E54F0C4540F4430FEFF1209F3E50ECC
:08095B00540F4430FF0209F3C0
:100963008F0E8D0F8B10E50E1209EBE50E1209EEBB
:100973007F3A1209F3E50F1209EBE50F1209EE7F37
:100983003A1209F3E5101209EBE510540F4430FF56
:030993000209F363
:100A8700E4FDFCC3ED9FEC9E50070DBD00010C80FB
:010A9700F26C
:010A9800223B
:100A1E00D290D2917F327E00120A87C2907F327EB0
:070A2E0000120A87C29122A9
:100A3500C291C2907F327E00120A87D2917F327EA8
:070A450000120A87D2902283
:100A62007F327E00120A87D2917F327E00120A877D
:030A7200C291220C
:050AB700C290020A627A
:050ABC00D290020A6265
:0209C2008F178D
:1009C400E4F518F519E517339290120A62E5172534
:1009D400E0F5170519E51970020518C39408E51820
:0609E400940040E1D290F6
:0109EA0022EA
:10099600E4F519D290F517F518E51925E0F519A231
:1009A60090E4334219120A620518E5187002051719
:0B09B600C39408E517940040E0AF195F
:0109C1002213
:100A4C00120A1E7FD01209C2120A62E4FF1209C2F6
:060A5C00120A62020A35D5
:100861008B0E8A0F8910120A1E7FD01209C2120A3A
:1008710062E4FF1209C2120A62120A35120A1E7FCD
:10088100D11209C2120A62120996AB0EAA0FA9105F
:10089100EF120A99120AB7120996AB11AA12A913FB
:1008A100EF120A99120AB7120996AB14AA15A916E2
:0A08B100EF120A99120ABC020A3580
:1008BB008B0E8A0F8910120A1E7FD01209C2120AE0
:1008CB00627F041209C2120A62120A35120A1E7FD3
:1008DB00D11209C2120A62120996AB0EAA0FA91005
:1008EB00EF120A99120AB7120996AB11AA12A913A1
:1008FB00EF120A99120AB7120996AB14AA15A91688
:0A090B00EF120A99120ABC020A3525
:100A9900BB010689828A83F0225002F722BBFE013C
:020AA900F32236
:00000001FF
